:1000000045C0000060C000005EC000005CC0000091
:100010005AC0000058C0000056C0000054C0000084
:1000200052C0000050C000004EC000004CC0000094
:100030004AC0000048C0000046C0000044C00000A4
:1000400042C0000040C000003FC000003CC00000B3
:100050003AC0000038C0000036C0000034C00000C4
:1000600032C0000030C000002EC000002CC00000D4
:100070002AC0000028C0000026C0000024C00000E4
:1000800022C0000020C000001EC0000011241FBEBE
:10009000CFEFD0E1DEBFCDBF11E0A0E0B1E0E2E301
:1000A000F2E000E00BBF02C007900D92AC31B10747
:1000B000D9F721E0ACE1B1E001C01D92A232B20754
:1000C000E1F730D0B4C09CCF1F920F920FB60F92C1
:1000D00011240BB60F922F933F934F935F936F931F
:1000E0007F938F939F93AF93BF93CF93EF93FF93A0
:1000F000CFB7F8948CB190E059D0CFBFFF91EF917A
:10010000CF91BF91AF919F918F917F916F915F91AF
:100110004F913F912F910F900BBE0F900FBE0F90FC
:100120001F901895ECE1F1E08EE091E093838283DB
:1001300080E091E09183808311D003D0579A789426
:10014000FFCF109290008FEC89B9599AE5E9F0E061
:10015000808186608083549A539A08951092980003
:100160008FEC80939900EBE9F0E0808182608083DE
:10017000EDE9F0E0808186608083EAE9F0E080814B
:10018000806180838081886080830895EBE9F0E05E
:10019000908195FFFDCF80939C000895EBE9F0E0FE
:1001A00080818823ECF780919C00089560911E0166
:1001B00070911F0100C00F931F93CF93DF93FB013A
:1001C000238121FD03C08FEF9FEF2CC022FF16C0BB
:1001D00046815781248135814217530744F4A08119
:1001E000B1819D012F5F3F4F318320838C93268106
:1001F00037812F5F3F4F3783268314C08B01EC017B
:10020000FB010084F185E02D0995892BE1F6D801E9
:1002100016968D919C911797019617969C938E93A5
:100220001697CE01DF91CF911F910F910895F89409
:02023000FFCFFE
:1002320000000001000000000000CE0000000000ED
:0C024200000200000000C60000000000E8
:00000001FF
