S016000066696E616C5F43617073746F6E652E7372656368
S113000045C0000060C000005EC000005CC000008D
S11300105AC0000058C0000056C0000054C0000080
S113002052C0000050C000004EC000004CC0000090
S11300304AC0000048C0000046C0000044C00000A0
S113004043C0000040C000003EC000003CC00000AF
S11300503AC0000038C0000036C0000034C00000C0
S113006032C0000030C000002EC000002CC00000D0
S11300702AC0000028C0000026C0000024C00000E0
S113008022C0000020C000001EC0000011241FBEBA
S1130090CFEFD0E1DEBFCDBF11E0A0E0B1E0E4E3FB
S11300A0F3E000E00BBF02C007900D92AC31B10742
S11300B0D9F721E0ACE1B1E001C01D92A832B2074A
S11300C0E1F771D035C19CCF1F920F920FB60F92FA
S11300D011240BB60F92CF92DF92EF92FF920F93FF
S11300E01F932F933F934F935F936F937F938F93BC
S11300F09F93AF93BF93EF93FF93C0901E01D09053
S11301001F01E0902001F090210180911C01909149
S11301101D01970186010F5F1F4F2F4F3F4F4896D8
S113012068EE73E0BCD06B01770FEE08FF08C00ED9
S1130130D11EE21EF31EC701B60128EE33E040E0F3
S113014050E0C0D0C0921E01D0921F01E092200165
S1130150F092210170931D0160931C01FF91EF91B6
S1130160BF91AF919F918F917F916F915F914F91CB
S11301703F912F911F910F91FF90EF90DF90CF90BF
S11301800F900BBE0F900FBE0F901F9018952FB7B6
S1130190F89460911E0170911F018091200190914B
S11301A021012FBF0895E2E2F1E08EE091E0938314
S11301B0828380E091E091838083E1E6F0E08081B6
S11301C08E7F808344D032D083B7846083BF87B767
S11301D0816087BF7894DBDF4B015C0180B1082F1D
S11301E0017010E0D4DF6B017C0180B18170C82FF5
S11301F020E0D22F0C171D0759F4D701C601881926
S11302009909AA09BB0989389341A105B10550F39D
S1130210209731F081E617D0460157018E01E2CFD5
S113022082E611D0460157018E01DCCF1092900076
S11302308FEC89B9599AE5E9F0E080818660808382
S1130240549A539A08955D9BFECF8CB908951092E9
S113025098008FEC80939900EBE9F0E08081826054
S11302608083EDE9F0E0808186608083EAE9F0E054
S11302708081806180838081886080830895EBE938
S1130280F0E0908195FFFDCF80939C000895EBE909
S1130290F0E080818823ECF780919C00089597FB1F
S11302A0072E16F4009406D077FD08D02DD007FC55
S11302B005D03EF4909581959F4F08957095619572
S11302C07F4F0895A1E21A2EAA1BBB1BFD010DC08E
S11302D0AA1FBB1FEE1FFF1FA217B307E407F507F2
S11302E020F0A21BB30BE40BF50B661F771F881FCE
S11302F0991F1A9469F760957095809590959B0164
S1130300AC01BD01CF010895AA1BBB1B51E107C07D
S1130310AA1FBB1FA617B70710F0A61BB70B881F91
S1130320991F5A95A9F780959095BC01CD01089520
S1070330F894FFCF6B
S1130334000000010000000000004701000000006C
S10F03440002000000003F010000000067
S9030000FC
